:020000040800F2
:1000000000C000200D070008F1060008F3060008F4
:10001000F5060008F7060008F906000800000000D1
:10002000000000000000000000000000FB060008C7
:10003000FD06000800000000FF0600080107000898
:100040005507000855070008550700085507000820
:100050005507000855070008550700085507000810
:100060005507000855070008550700085507000800
:1000700055070008550700085507000855070008F0
:1000800055070008550700085507000855070008E0
:1000900055070008550700085507000855070008D0
:1000A00055070008550700085507000855070008C0
:1000B00055070008550700085507000855070008B0
:1000C00055070008550700085507000855070008A0
:1000D0005507000855070008550700085507000890
:1000E0005507000855070008550700085507000880
:1000F0005507000855070008550700085507000870
:10010000550700085507000855070008550700085F
:10011000550700085507000855070008550700084F
:10012000550700085507000855070008550700083F
:1001300000000000000000000000000000000000BF
:1001400000000000000000000000000000000000AF
:10015000000000000000000000000000000000009F
:10016000000000000000000000000000000000008F
:10017000000000000000000000000000000000007F
:10018000000000000000000000000000000000006F
:10019000000000000000000000000000000000005F
:1001A000000000000000000000000000000000004F
:1001B000000000000000000000000000000000003F
:1001C000000000000000000000000000000000002F
:1001D000000000000000000000000000000000001F
:0401E0005FF8E0F1F3
:1001E40010B5054C237833B9044B13B10448AFF36D
:1001F40000800123237010BD3C0400200000000097
:10020400E412000808B5034B1BB103490348AFF3DC
:10021400008008BD0000000040040020E412000833
:1002240070B586B0154B9A6942F008029A619B69D1
:1002340003F008030193019B0023029303930493A7
:1002440005938025029511230393032305930C4CF6
:1002540002A9204600F03AFB4026029602A9204655
:1002640000F034FB01223146204600F04FFC01220D
:100274002946204600F04AFC06B070BD001002403A
:10028400000C014010B50B4C01228021204600F0E7
:100294003DFC01224021204600F038FC0022802150
:1002A400204600F033FC00224021204600F02EFCC2
:1002B40010BD00BF000C014010B5084C0022802185
:1002C400204600F023FC01224021204600F01EFCC1
:1002D40001228021204600F019FC10BD000C0140D1
:1002E40070B50646002413E0802141FA04F20F4D54
:1002F4003240284600F00AFC01224021284600F042
:1003040005FC00224021284600F000FC0134E4B240
:10031400072CE9D9054C01224021204600F0F6FBC8
:1003240000224021204600F0F1FB70BD000C01408A
:1003340010B50446FFF7A6FF7820FFF7D1FF002091
:10034400FFF7CEFF2046FFF7CBFFFFF7B5FF10BD49
:1003540010B50446FFF796FF7820FFF7C1FF402051
:10036400FFF7BEFF2046FFF7BBFFFFF7A5FF10BD59
:1003740010B50C4640F0B000FFF7DAFF200940F05A
:100384001000FFF7D5FF04F00F00FFF7D1FF10BDF9
:1003940038B5002509E00020FFF7DAFF0134E4B2A4
:1003A40014F0800FF7D00135EDB2072D05D80021E8
:1003B4002846FFF7DDFF0024F2E738BDF8B51546FF
:1003C400461E7600F6B24F1EFF00FFB23946304695
:1003D400FFF7CEFF002409E0A5F120030F4A02EB4A
:1003E4000313185DFFF7B4FF0134E4B2072CF3D90B
:1003F400701C3946C0B2FFF7BBFF00240BE0A5F127
:10040400200304F10802054901EB0313985CFFF78C
:100414009FFF0134E4B2072CF1D9F8BDFC120008A7
:100424000246012002E002FB00F019464B1E00299F
:10043400F9D170472DE9F8438146884617461E4690
:10044400002419E004EB0805EDB2311B01390A2040
:10045400FFF7E6FFB7FBF0F0094AA2FB0032D2082F
:1004640002EB8202A0EB42023032D2B22946484665
:10047400FFF7A4FF0134E4B2B442E3D3BDE8F88348
:10048400CDCCCCCC08B5002204E00133B3F57A7F9F
:10049400FBD30132B2F57A7F01D20023F6E7FFF7EE
:1004A400BFFEAE20FFF744FFD520FFF741FF8020B9
:1004B400FFF73EFFA820FFF73BFF3F20FFF738FF81
:1004C400D320FFF735FF0020FFF732FF4020FFF76E
:1004D4002FFFA120FFF72CFFC820FFF729FFDA2008
:1004E400FFF726FF1220FFF723FF8120FFF720FFED
:1004F400CF20FFF71DFFD920FFF71AFFF120FFF7E8
:1005040017FFDB20FFF714FF3020FFF711FFA420B3
:10051400FFF70EFFA620FFF70BFF8D20FFF708FF64
:100524001420FFF705FFAF20FFF702FFFFF730FFAE
:1005340008BD0000F0B589B0002404940594069425
:100544000794244B9A6942F020029A619A6902F056
:1005540020020092009A9A6942F010029A619A6904
:1005640002F010020192019A9A6942F004029A611F
:100574009A6902F004020292029A9A6942F008020D
:100584009A619B6903F008030393039B124F22466D
:100594000321384600F0BAFA104D2246C0212846FD
:1005A40000F0B4FA0323049301230593069402266E
:1005B400079604A9384600F089F9C023049311234F
:1005C40005930694079604A9284600F07FF909B01C
:1005D400F0BD00BF0010024000100140000C0140BB
:1005E40072B6FEE700B591B02822002106A800F0FB
:1005F400B5FD002301930293039304930593012211
:1006040006924FF4803307930A9202220D920E93BE
:100614004FF4E0130F9306A800F094FA80B90F2367
:10062400019302210291002303934FF48062049208
:10063400059301A800F0B8FC20B911B05DF804FBE3
:10064400FFF7CEFFFFF7CCFF08B500F0A9F8FFF7DE
:10065400C9FFFFF76FFFFFF715FF032340F29A224C
:1006640001210846FFF7E6FE4FF47A7000F0BCF86B
:100674000C4C01220221204600F048FA01221146C6
:10068400204600F043FA4FF47A7000F0ADF80022EF
:100694000221204600F03AFA00220121204600F00F
:1006A40035FAE1E70010014082B00E4B9A6942F03E
:1006B40001029A619A6902F001020092009ADA69D1
:1006C40042F08052DA61DB6903F080530193019BAD
:1006D400054A536823F0E06343F00073536002B0AB
:1006E400704700BF0010024000000140FEE7FEE733
:1006F400FEE7FEE7FEE770477047704708B500F075
:1007040061F808BD70470000FFF7FCFF0B480C4977
:100714000C4A002302E0D458C4500433C4188C4259
:10072400F9D3094A094C002301E013600432A242C0
:10073400FBD300F0EFFCFFF787FF704700000020B9
:100744003C040020201900083C0400206004002020
:10075400FEE7000010B504460E4B18784FF47A7388
:10076400B3FBF0F30C4A1068B0FBF3F000F09AF816
:1007740068B90F2C01D901200AE0002221464FF06C
:10078400FF3000F057F8054B1C60002000E001200A
:1007940010BD00BF0400002000000020080000205D
:1007A40008B5074A136843F010031360032000F0F0
:1007B4002FF80F20FFF7CEFFFFF776FF002008BDCC
:1007C40000200240034A1168034B1B780B4413605A
:1007D400704700BF5804002004000020014B186833
:1007E400704700BF5804002038B50446FFF7F6FFF1
:1007F4000546B4F1FF3F02D0044B1B781C44FFF7BD
:10080400EDFF401BA042FAD338BD00BF0400002016
:10081400074AD36823F4E0631B041B0C000200F4B2
:10082400E060034343F0BF6343F40033D360704795
:1008340000ED00E000B5194BDB68C3F30223C3F1FC
:10084400070CBCF1040F28BF4FF0040C03F1040E95
:10085400BEF1060F18D9033B4FF0FF3E0EFA0CFC15
:1008640021EA0C0199400EFA03F322EA0303194327
:1008740000280BDB0901C9B200F1604000F56140BA
:1008840080F800135DF804FB0023E5E700F00F0097
:100894000901C9B2024B1954F4E700BF00ED00E0AE
:1008A40014ED00E00138B0F1807F0BD24FF0E0236B
:1008B4005861054AF02182F823100020986107222C
:1008C4001A6170470120704700ED00E070B582B0F6
:1008D4000024A446B0E0874DAA4210D007D9864D23
:1008E400AA420CD005F58035AA4208D013E0A5F53C
:1008F4008015AA4203D005F57025AA4207D18A685B
:10090400002A62D0012A5BD04361082403E0A5F5E4
:100914008015AA42F3D0BEF1FF0F58D80646BEF1A7
:10092400FF0F56D84FEA8C0233680F25954023EA0F
:10093400050304FA02F2134333604B6813F0805F3B
:1009440078D06E4B9A6942F001029A619B6903F078
:1009540001030193019B4FEA9C02951C684B53F8D9
:1009640025600CF003039D000F23AB4026EA030629
:10097400644B984233D003F58063984200F098802A
:1009840003F58063984200F0958003F580639842F4
:1009940000F0928003F58063984200F08F8003F5A5
:1009A4008063984219D006231AE0CC68B3E7CC6878
:1009B4000434B0E7CC680834ADE7CC680C34AAE75B
:1009C40003610824A7E70024A5E70424A3E7061D80
:1009D400A5E7ACF108029200A6E7052300E0002396
:1009E400AB4033430232464D45F822304B6813F492
:1009F400801F65D0444A936843EA0E0393604B68B2
:100A040013F4001F62D0404AD36843EA0E03D36054
:100A14004B6813F4003F5FD03B4A536843EA0E032C
:100A240053604B6813F4803F5CD0374A136843EA41
:100A34000E0313600CF1010C0A6832FA0CF357D060
:100A4400012303FA0CF302EA030E33EA0202F1D1A2
:100A54004A68122A3FF63FAF122A3FF65CAF01A55F
:100A640055F822F003090008AF090008B909000885
:100A7400CB0900081B0900081B0900081B09000812
:100A84001B0900081B0900081B0900081B090008B2
:100A94001B0900081B0900081B0900081B090008A2
:100AA4001B0900081B090008B3090008BF09000856
:100AB400012395E7022393E7032391E704238FE7B8
:100AC400114A936823EA0E03936098E70E4AD368A9
:100AD40023EA0E03D3609BE70B4A536823EA0E0311
:100AE40053609EE7084A136823EA0E031360A1E7E4
:100AF40002B070BD0000221000003110001002404E
:100B04000000014000080140000401400AB10161F5
:100B1400704709040161704782B0084B1B68084A9A
:100B2400A2FB03235B0A00FB03F3019300BF019BB9
:100B34005A1E0192002BF9D102B070470000002028
:100B4400D34D6210002800F0F18170B582B00446E4
:100B5400036813F0010F2CD0994B5B6803F00C036E
:100B6400042B1DD0964B5B6803F00C03082B12D0AA
:100B74006368B3F5803F41D0002B55D103F1804326
:100B840003F504331A6822F480321A601A6822F4D6
:100B940080221A6037E08A4B5B6813F4803FE7D009
:100BA400874B1B6813F4003F03D06368002B00F0ED
:100BB400BF81236813F0020F75D0814B5B6813F07B
:100BC4000C0F5FD07E4B5B6803F00C03082B54D0F2
:100BD4002369002B00F08A807A4B01221A60FFF708
:100BE400FDFD0546764B1B6813F0020F75D1FFF728
:100BF400F5FD401B0228F5D903209EE1704A1368D5
:100C040043F480331360636843B3FFF7E7FD05469D
:100C14006B4B1B6813F4003FCBD1FFF7DFFD401B88
:100C24006428F5D9032088E1B3F5A02F09D0644BDB
:100C34001A6822F480321A601A6822F480221A6038
:100C4400E1E703F18043A3F53C331A6842F48022C0
:100C54001A601A6842F480321A60D4E7FFF7BEFDC6
:100C64000546574B1B6813F4003FA2D0FFF7B6FDAF
:100C7400401B6428F5D903205FE1514B5B6813F4F2
:100C8400803FA5D14E4B1B6813F0020F03D023699C
:100C9400012B40F04F814A4A136823F0F80361693D
:100CA40043EAC1031360236813F0080F33D0A36928
:100CB400002B5CD0434B0122C3F88024FFF78EFD48
:100CC40005463F4B5B6A13F0020F21D1FFF786FD07
:100CD400401B0228F5D903202FE1394A136823F079
:100CE400F803616943EAC1031360DCE7354B002272
:100CF4001A60FFF773FD0546314B1B6813F0020FB2
:100D0400D1D0FFF76BFD401B0228F5D9032014E175
:100D14000120FFF701FF236813F0040F00F0968011
:100D2400274BDB6913F0805F34D1254BDA6942F03D
:100D34008052DA61DB6903F080530193019B012542
:100D4400214B1B6813F4807F26D0E368012B3DD030
:100D5400002B53D103F1804303F504331A6A22F0C4
:100D640001021A621A6A22F004021A6233E0154B75
:100D74000022C3F88024FFF731FD0546104B5B6A5F
:100D840013F0020FC7D0FFF729FD401B0228F5D945
:100D94000320D2E00025D3E70B4A136843F48073A1
:100DA4001360FFF71BFD0646074B1B6813F4807F97
:100DB400CBD1FFF713FD801B6428F5D90320BCE0D9
:100DC4000010024000004242007000405F4A136A73
:100DD40043F001031362E36833B3FFF7FFFC0646F5
:100DE4005A4B1B6A13F0020F2FD1FFF7F7FC801B3D
:100DF40041F288339842F3D903209EE0052B09D0B1
:100E0400524B1A6A22F001021A621A6A22F0040290
:100E14001A62E0E74D4B1A6A42F004021A621A6A37
:100E240042F001021A62D6E7FFF7D8FC0646474BA8
:100E34001B6A13F0020F08D0FFF7D0FC801B41F2AD
:100E440088339842F3D9032077E0E5B9E369002BAE
:100E540072D03E4A526802F00C02082A56D0022B85
:100E640017D03B4B00221A66FFF7B8FC0446374BF9
:100E74001B6813F0007F47D0FFF7B0FC001B02286B
:100E8400F5D9032059E0314AD36923F08053D36163
:100E9400DCE72F4B00221A66FFF7A0FC05462B4B1C
:100EA4001B6813F0007F06D0FFF798FC401B022854
:100EB400F5D9032041E0236AB3F5803F1AD02349D2
:100EC4004B6823F47413226A606A024313434B6031
:100ED4001F4B01221A66FFF781FC04461B4B1B685B
:100EE40013F0007F0ED1FFF779FC001B0228F5D91F
:100EF400032022E0154A536823F40033A1680B430E
:100F04005360DCE7002018E0002016E0012B16D027
:100F14000E4B5B6803F48031226A914211D103F4D1
:100F24007013626A93420ED1002006E001207047DC
:100F3400012002E0012000E0002002B070BD012089
:100F4400FBE70120F9E70120F7E700BF00100240AA
:100F5400000042420F4B5B6803F00C02082A01D0E8
:100F64000D487047C3F383420C49885C13F4803FF7
:100F74000BD0084B5B68C3F34043094AD35C064A71
:100F840002FB00F0B0FBF3F07047064B03FB00F0EC
:100F9400704700BF0010024000127A00FC180008DD
:100FA4000C19000800093D00002800F0A08070B56D
:100FB4000D460446524B1B6803F007038B420BD2C9
:100FC4004F4A136823F007030B431360136803F0BD
:100FD40007038B4240F08D80236813F0020F17D073
:100FE40013F0040F04D0474A536843F4E06353609A
:100FF400236813F0080F04D0424A536843F4605343
:101004005360404A536823F0F003A1680B435360D4
:10101400236813F0010F31D06368012B20D0022B19
:1010240025D0384A126812F0020F64D035494A6854
:1010340022F0030213434B60FFF7D0FB0646314B0B
:101044005B6803F00C036268B3EB820F16D0FFF702
:10105400C5FB801B41F288339842F0D9032045E058
:10106400284A126812F4003FE0D101203EE0254AEC
:10107400126812F0007FD9D1012037E0204B1B68A1
:1010840003F00703AB420AD91D4A136823F0070390
:101094002B431360136803F00703AB422DD123687D
:1010A40013F0040F06D0174A536823F4E063E16891
:1010B4000B435360236813F0080F07D0114A536899
:1010C40023F46053216943EAC1035360FFF742FFED
:1010D4000C4B5B68C3F303130B4AD35CD8400B4B34
:1010E40018600B4B1868FFF735FB002070BD01201A
:1010F40070470120FAE70120F8E70120F6E700BF76
:101104000020024000100240EC18000800000020FB
:101114000800002070B50D4E0D4D761BB61006D09C
:10112400002455F8043B01349847A642F9D1094EEE
:10113400094D00F0D5F8761BB61006D0002455F8FA
:10114400043B01349847A642F9D170BD1419000834
:10115400141900081C19000814190008830730B575
:1011640048D0541E002A3FD00346CAB201E0013CD5
:101174003AD303F8012B9D07F9D1032C2DD9CDB215
:1011840045EA05250F2C45EA054536D9A4F1100298
:1011940022F00F0C03F1200EE6444FEA121C03F177
:1011A400100242E9045542E9025510327245F8D161
:1011B4000CF1010214F00C0F03EB021204F00F0CFB
:1011C40013D0ACF1040323F003030433134442F8B3
:1011D400045B9342FBD10CF003042CB1CAB21C444F
:1011E40003F8012B9C42FBD130BD64461346002C0E
:1011F400F4D1F9E703461446BFE71A46A446E0E7EC
:10120400024B13B1024800F005B87047000000001B
:1012140025120008002301461A46184600F01AB8A1
:1012240038B5084B084D5B1B9C1007D0043B1D448C
:10123400013C55F804399847002CF9D1BDE83840F1
:1012440000F054B8201900081C190008704700BFAA
:10125400704700BF2DE9F047DFF87CA00646DAF8B6
:10126400000098460F469146FFF7F0FF1B4B1B68A2
:10127400D3F8484124B365681F2D26DC5EB96B1C86
:101284000235DAF80000636044F82570FFF7E0FFE8
:101294000020BDE8F087012304EB8501C1F88890A4
:1012A400D4F88821AB401A43022EC4F88821C1F82F
:1012B4000881E4D1D4F88C211343C4F88C31DEE7DF
:1012C40003F5A674C3F84841D5E7DAF80000FFF740
:1012D400BFFF4FF0FF30DCE738040020101900088E
:1012E400F8B500BFF8BC08BC9E467047F8B500BF0F
:0812F400F8BC08BC9E467047DF
:1012FC0000000000000000000000000000000000E2
:10130C00000000F800000000000000333000000076
:10131C0000100C06100C060000000000000000007D
:10132C0040C07840C0784000043F04043F040400EF
:10133C00007088FC08300000001820FF211E0000FF
:10134C00F008F000E018000000211C031E211E0014
:10135C0000F00888700000001E212324192721109A
:10136C0010160E000000000000000000000000003D
:10137C00000000E0180402000000000718204000E4
:10138C0000020418E00000000040201807000000D4
:10139C00404080F0804040000202010F0102020038
:1013AC00000000F0000000000101011F010101001C
:1013BC00000000000000000080B070000000000081
:1013CC00000000000000000000010101010101010A
:1013DC0000000000000000000030300000000000A1
:1013EC000000000080601804006018060100000076
:1013FC0000E010080810E000000F102020100F0073
:10140C00001010F8000000000020203F20200000F9
:10141C000070080808887000003028242221300051
:10142C0000300888884830000018202020110E0059
:10143C000000C02010F8000000070424243F240002
:10144C0000F80888880808000019212020110E00D7
:10145C0000E0108888180000000F112020110E00E9
:10146C0000380808C83808000000003F00000000E1
:10147C000070880808887000001C222121221C00A2
:10148C0000E010080810E0000000312222110F00CB
:10149C00000000C0C0000000000000303000000060
:1014AC0000000080000000000000806000000000D0
:1014BC0000008040201008000001020408102000E9
:1014CC004040404040404000040404040404040034
:1014DC0000081020408000000020100804020100C9
:1014EC00007048080808F0000000003036010000C9
:1014FC00C030C828E810E0000718272423140B007C
:10150C000000C038E0000000203C230202273820F5
:10151C0008F8888888700000203F202020110E00D9
:10152C00C0300808080838000718202020100800D0
:10153C0008F808080810E000203F202020100F00B9
:10154C0008F88888E8081000203F20202320180085
:10155C0008F88888E8081000203F200003000000ED
:10156C00C03008080838000007182020221E02008E
:10157C0008F808000008F808203F210101213F204D
:10158C00000808F8080800000020203F2020000078
:10159C0000000808F8080800C08080807F00000068
:1015AC0008F888C028180800203F200126382000A1
:1015BC0008F8080000000000203F20202020300008
:1015CC0008F8F800F8F80800203F003F003F200022
:1015DC0008F830C00008F808203F200007183F002A
:1015EC00E01008080810E0000F10202020100F0059
:1015FC0008F808080808F000203F2101010100004C
:10160C00E01008080810E0000F18242438504F0090
:10161C0008F8888888887000203F2000030C302050
:10162C0000708808080838000038202121221C008E
:10163C00180808F8080818000000203F20000000D7
:10164C0008F808000008F808001F202020201F00C0
:10165C000878880000C83808000007380E01000020
:10166C00F80800F80008F800033C0700073C0300EA
:10167C00081868808068180820302C03032C302050
:10168C000838C800C83808000000203F20000000BF
:10169C0010080808C8380800203826212020180017
:1016AC00000000FE020202000000007F40404000EB
:1016BC00000C30C000000000000000010638C00023
:1016CC0000020202FE000000004040407F000000CB
:1016DC0000000402020204000000000000000000F0
:1016EC0000000000000000008080808080808080EE
:1016FC0000020204000000000000000000000000D6
:10170C0000008080808000000019242222223F20CB
:10171C0008F8008080000000003F112020110E000E
:10172C000000008080800000000E1120202011009D
:10173C00000000808088F800000E112020103F204F
:10174C000000808080800000001F222222221300D3
:10175C00008080F0888888180020203F202000001E
:10176C000000808080808000006B949494936000D3
:10177C0008F8008080800000203F210000203F20DE
:10178C0000809898000000000020203F20200000DE
:10179C00000000809898000000C08080807F0000CE
:1017AC0008F8000080808000203F24022D302000AB
:1017BC00000808F8000000000020203F2020000056
:1017CC008080808080808000203F20003F20003F70
:1017DC008080008080800000203F210000203F207E
:1017EC000000808080800000001F202020201F002F
:1017FC00808000808000000080FFA12020110E005E
:10180C000000008080808000000E112020A0FF804E
:10181C00808080008080800020203F2120000100FB
:10182C000000808080808000003324242424190050
:10183C00008080E0808000000000001F202000005D
:10184C008080000000808000001F202020103F209E
:10185C00808080000080808000010E30080601002E
:10186C0080800080008080800F300C030C300F00D3
:10187C0000808000808080000020312E0E312000FE
:10188C00808080000080808080818E70180601002E
:10189C0000808080808080000021302C222130004C
:1018AC0000000000807C020200000000003F40406D
:1018BC0000000000FF00000000000000FF0000001E
:1018CC000002027C800000000040403F000000004D
:1018DC0000060101020204040000000000000000E8
:1018EC0000000000000000000102030406070809C4
:1018FC0002030405060708090A0B0C0D0E0F101045
:08190C000102000010000020A0
:08191400051200080902000899
:04191C00E5010008D9
:101920000024F4000100000010000000000000008E
:1019300000000000FC02002064030020CC03002013
:101940000000000000000000000000000000000097
:101950000000000000000000000000000000000087
:101960000000000000000000000000000000000077
:101970000000000000000000000000000000000067
:101980000000000000000000000000000000000057
:101990000000000000000000000000000000000047
:1019A0000000000000000000000000000000000037
:1019B0000000000000000000000000000000000027
:1019C0000000000000000000000000000000000017
:1019D0000000000000000000010000000000000006
:1019E0000E33CDAB34126DE6ECDE05000B000000CB
:1019F00000000000000000000000000000000000E7
:101A000000000000000000000000000000000000D6
:101A100000000000000000000000000000000000C6
:101A200000000000000000000000000000000000B6
:0C1D500000000000000000005C04002007
:040000050800070DDB
:00000001FF
